S00F000064656661756C742E7372656330
S11300000C942A000C9434000C9434000C943400A6
S11300100C9434000C9434000C9434000C9434008C
S11300200C9434000C9434000C9434000C9434007C
S11300300C9434000C9434000C9434000C9434006C
S11300400C9434000C9434000C9434000C9434005C
S11300500C94340011241FBECFE5D8E0DEBFCDBF21
S11300600E9436000C94CE000C9400001ABA8FEF54
S11300708BBB8FE087BB18BA24E033C018BAC09A90
S1130080C39A3FEF43EC59E0315040405040E1F710
S113009000C00000C398CA9B18C09FEF31EE44E033
S11300A0915030404040E1F700C0000085E290E00C
S11300B0CA9B0BC03FEF41EE54E0315040405040EA
S11300C0E1F700C00000019799F718BAC89BFECF6A
S11300D08FEF90E732E0815090403040E1F700C06C
S11300E0000028BBC89BCACFC99B10C0CA99F9CFCE
S11300F018BAC29ACA9BFECF4FEF50E782E0415034
S113010050408040E1F700C00000EBCF18BAC19A1C
S1130110C39A4FEF53EC89E0415050408040E1F7DF
S113012000C00000C3989FEF33EC49E09150304089
S11301304040E1F700C00000C39A5FEF83EC99E010
S1130140515080409040E1F700C00000C398CA9B22
S113015018C05FEF81EE94E0515080409040E1F789
S113016000C000008DE590E0CA9B0BC03FEF41EE5C
S113017054E0315040405040E1F700C00000019786
S113018099F718BAC99BFECF8FEF90E732E0815000
S113019090403040E1F700C00000A3CFF894FFCFB7
S9030000FC
